:100000000C9435010C9466010C9466010C94660105
:100010000C9466010C9466010C9466010C946601C4
:100020000C9466010C9466010C9466010C946601B4
:100030000C9466010C9466010C9466010C946601A4
:100040000C9466010C9466010C9466010C94660194
:100050000C9466010C9466010C9466010C949B064A
:100060000C9466010C946F070C9445070C94660180
:100070000C9466010C9466010C9466010C94660164
:100080000C9466010C9466010C9466010C94660154
:100090000C940F070C94E5060C9466010C94660111
:1000A0000C9466010C9466010C9466010C94660134
:1000B0000C9466010C9466010C9466010C94660124
:1000C0000C9466010C9466010C9466010C94660114
:1000D0000C9466010C9466010C9466010C94660104
:1000E0000C9466010C9450040C946C030C9447031C
:1000F0000C9470030C94A0040C9474030C940503EA
:100100000C947E030C944E030C943F030C94ED046A
:100110000C943C040C9400040C9454030C94A50718
:100120000C9466030C9462030C947A030C944303BE
:100130000C9400030C945E030C945E040C944B032B
:100140000C942D040C945803000021002400270077
:100150002A002D00300033000101000004010701D6
:100160000A0100002200250028002B002E0031008B
:10017000340002010000050108010B0100000A0B18
:1001800002090C0D0E080703040100000000000026
:10019000000000000000000000000000000000005F
:1001A000000000000000000012111000000000001C
:1001B000000000000000000000000000000000003F
:1001C0000000000020002300260029002C002F0042
:1001D00032000001000003010601090105050505C3
:1001E000070508080808020202020A0A08080404AF
:1001F00004040101010101010101030303030303DD
:100200000303040707070C0C0C0C0C0C0C0C02026B
:10021000020206060606060606060B0B0B0B0B0B68
:100220000B0B0102102020080810204010204080F5
:1002300002010201080402010102040810204080AA
:100240008040201008040201800402018040201038
:100250000804020108040201010204081020408081
:100260000102040810204080A50711241FBECFEF13
:10027000D1E2DEBFCDBF00E00CBF12E0A0E0B2E0F3
:10028000E4EAF7E100E00BBF02C007900D92A23450
:10029000B107D9F723E0A2E4B2E001C01D92A8396A
:1002A000B207E1F711E0C5E3D1E000E006C0219715
:1002B0000109802FFE010E94C80BC433D10780E0E2
:1002C0000807A9F70E9418080C94D00B0C940000A2
:1002D000FC01A089B18982E08C93A485B5851C922C
:1002E000A685B7858FEC8C93108EA489B58986E09E
:1002F0008C93A289B3898C9180618C93A289B389F4
:100300008C9188608C93A289B3898C9180688C933E
:100310000288F389E02D80818F7D80830895CF92BC
:10032000DF92EF92FF92CF93DF93B0918C03A0E026
:100330008111AB2F80918D0390E0880F991FAC0144
:100340004E535E4FC0909203D0909303E09094037D
:10035000F090950330E020E0FA01C591D491E88156
:10036000B90190E080E0EB23EA130AC02F5F3F4F12
:100370006C157D058E059F0578F36FEF7FEFCB0140
:10038000DF91CF91FF90EF90DF90CF900895CF93C2
:10039000DF9390E0FC01EE5DFD4F249184529E4F6F
:1003A000FC0184918823D1F090E0880F991FFC0113
:1003B000E85BFE4FA591B491FC01EE59FE4FC5914B
:1003C000D491623071F49FB7F8943C91822F80955C
:1003D00083238C93E8812E2B28839FBFDF91CF91BD
:1003E00008958FB7F894EC912E2B2C938FBFF6CFF6
:1003F00090917B00977F90937B00865380648093DD
:100400007C0080917A00806480937A0080917A00E9
:1004100086FDFCCF809178009091790008953FB7D8
:10042000F8948091430290914402A0914502B091CA
:10043000460226B5A89B05C02F3F19F00196A11DC5
:10044000B11D3FBFBA2FA92F982F8827BC01CD011E
:10045000620F711D811D911D42E0660F771F881F7D
:10046000991F4A95D1F708958F929F92AF92BF92AC
:10047000CF92DF92EF92FF924B015C010E940F023C
:100480006B017C010E940F026C197D098E099F0986
:10049000683E734081059105A8F321E0821A910816
:1004A000A108B10888EEC80E83E0D81EE11CF11C3B
:1004B00081149104A104B10429F7FF90EF90DF901B
:1004C000CF90BF90AF909F908F9008958F929F9202
:1004D000AF92BF92EF92FF920F931F93CF93DF9350
:1004E000CDB7DEB7C054D1400FB6F894DEBF0FBE13
:1004F000CDBF2FB7F8948091470290914802A09108
:100500004902B0914A022FBF40918E0350918F0350
:1005100060919003709191038C019D01041B150B58
:10052000260B370BB901A801403D57406105710505
:10053000A0F480919603C05CDE4F0FB6F894DEBF46
:100540000FBECDBFDF91CF911F910F91FF90EF9024
:10055000BF90AF909F908F90089580938E0390935B
:100560008F03A0939003B09391031092890310928C
:10057000880310928703109286031092850362E02D
:1005800080918A030E94C70161E070E080E090E002
:100590000E94340261E080918A030E94C701209189
:1005A0008A0330E0F901E458FE4F8491F901EE5DD1
:1005B000FD4F949124523E4FF9012491222309F4D6
:1005C00033C0882311F181508231F8F4E82FF0E034
:1005D0008827E251FD4F8F4F0C94C80B47034B0304
:1005E00000033F03430305034E03540358035E0314
:1005F000620366036C037003050374037A037E03CE
:10060000809180008F7780938000E22FF0E0EE0FE2
:10061000FF1FEE59FE4FA591B4918FB7F894EC915E
:1006200090959E239C938FBF80918B038551823040
:1006300008F068C08BE291E10197F1F762E08091E8
:100640008A030E94C7018091970390E08230910550
:1006500038F0880F991F880F991F05970197F1F7B8
:10066000F89480E00E948F016F3F7F4F8F4F9F4F24
:1006700009F04FC010929603789480E05CCF80918F
:1006800080008F7DC0CF80918000877FBCCF84B5F4
:100690008F7784BDBACF84B58F7DFBCF8091B000BA
:1006A0008F778093B000B1CF8091B0008F7DF9CF6C
:1006B000809190008F7780939000A7CF80919000D9
:1006C0008F7DF9CF80919000877FF5CF8091A0003A
:1006D0008F778093A00099CF8091A0008F7DF9CF74
:1006E0008091A000877FF5CF809120018F77809344
:1006F00020018BCF809120018F7DF9CF8091200147
:10070000877FF5CF64E170E080E090E00E943402E2
:1007100095CF81E00E948F016F3F7F4F8F4F9F4F9A
:1007200009F4A8CF9E012F5F3F4F79015E013FEB97
:10073000A31A3EEFB30A870180E00E948F01F801FF
:10074000608371838283938381E00E948F01F8012B
:100750006483758386839783085F1F4FA016B10655
:1007600059F7789430E020E0F70180809180A280F2
:10077000B3804481558166817781FFEF8F169F0694
:10078000AF06BF0631F04F3F0FEF5007600770070D
:1007900019F41092960371CFF90183E0F595E7956E
:1007A0008A95E1F7EB57FC4F8081880F84169506F8
:1007B000A606B70618F180832F5F3F4F18E0E10EC1
:1007C000F11C2832310581F640918903209185037F
:1007D00080918603280F3327331F80918703280FCA
:1007E000311D80918803820F932F911D99274817FF
:1007F000190679F681E0809396039DCE8160DBCF68
:10080000AF92BF92CF92DF92EF92FF920F931F931E
:10081000CF93DF936C017B018B01040F151FEB015C
:100820005E01AE18BF08C017D10759F06991D60113
:10083000ED91FC910190F081E02DC6011995892B75
:1008400079F7C501DF91CF911F910F91FF90EF9044
:10085000DF90CF90BF90AF900895FC01538D448DF1
:10086000252F30E0842F90E0821B930B541710F05B
:10087000CF96089501970895FC01918D828D981768
:1008800061F0A28DAE0FBF2FB11D5D968C91928D40
:100890009F5F9F73928F90E008958FEF9FEF089571
:1008A000FC01918D828D981731F0828DE80FF11D3A
:1008B000858D90E008958FEF9FEF0895FC01918D55
:1008C000228D892F90E0805C9F4F821B91098F734E
:1008D000992708958BE492E00E945E0421E0892B21
:1008E00009F420E0822F089588EE92E00E945E04D1
:1008F00021E0892B09F420E0822F0895FC01A48DCA
:10090000A80FB92FB11DA35ABF4F2C91848D90E031
:1009100001968F739927848FA689B7892C93A08914
:10092000B1898C91837080648C93938D848D98139E
:1009300006C00288F389E02D80818F7D8083089531
:10094000EF92FF920F931F93CF93DF93EC0181E01F
:10095000888F9B8D8C8D98131AC0E889F9898081C6
:1009600085FF15C09FB7F894EE89FF896083E889F9
:10097000F98980818370806480839FBF81E090E0EB
:10098000DF91CF911F910F91FF90EF900895F62E78
:100990000B8D10E00F5F1F4F0F731127E02E8C8D12
:1009A0008E110CC00FB607FCFACFE889F989808157
:1009B00085FFF5CFCE010E947E04F1CFEB8DEC0FC9
:1009C000FD2FF11DE35AFF4FF0829FB7F8940B8F74
:1009D000EA89FB8980818062CFCFCF93DF93EC01DE
:1009E000888D8823B9F0AA89BB89E889F9898C9117
:1009F00085FD03C0808186FD0DC00FB607FCF7CFD3
:100A00008C9185FFF2CF808185FFEDCFCE010E94D2
:100A10007E04E9CFDF91CF91089580E090E0892BAB
:100A200029F00E94740481110E94000080E090E08F
:100A3000892B29F00E946A0481110E94000080E045
:100A400090E0892B49F080E090E0892B29F00E940A
:100A5000000081110E94000080E090E0892B49F0A5
:100A600080E090E0892B29F00E94000081110C9415
:100A700000000895FB0101900020E9F73197AF01D4
:100A8000461B570B0C9400048F929F92AF92BF921B
:100A9000EF92FF920F931F93CF93DF93CDB7DEB703
:100AA000A1970FB6F894DEBF0FBECDBF7C01FA014F
:100AB000CB0119A2223008F42AE08E010F5D1F4FEE
:100AC000822E912CB12CA12CBF01A50194010E9472
:100AD000A60BF901CA016A300CF5605DD8016E936E
:100AE0008D01232B242B252B79F790E080E01097A4
:100AF00021F0BD01C7010E943A05A1960FB6F894F6
:100B0000DEBF0FBECDBFDF91CF911F910F91FF9040
:100B1000EF90BF90AF909F908F900895695CDECF6B
:100B2000CF92DF92EF92FF920F931F93CF93DF93B9
:100B30008C016B01770FEE08FF08F7FE21C06DE214
:100B40000E94A004EC0144275527BA014C195D0905
:100B50006E097F092AE0C8010E944405C80FD91F09
:100B600062E172E0C8010E943A058C0F9D1FDF917F
:100B7000CF911F910F91FF90EF90DF90CF9008954C
:100B80002AE0B701A6010E944405EC01E9CF4F928B
:100B90005F926F927F928F929F92AF92BF92CF920D
:100BA000DF92EF92FF92CF93DF93EC016A017B011A
:100BB000AB019601CB01B6010E94A10B65E172E089
:100BC00081111AC046015701E894B7F82FEF3FEFA3
:100BD0004FE75FE7C501B4010E94A10B811126C058
:100BE0002FEF3FEF4FE75FE7C501B4010E94490ACD
:100BF0001816E4F469E172E0CE010E943A057C0126
:100C000062E172E0CE010E943A058E0D9F1DDF91D8
:100C1000CF91FF90EF90DF90CF90BF90AF909F90DB
:100C20008F907F906F905F904F9008952FEF3FEFE0
:100C30004FE75FE4C701B6010E942F0B18161CF4A2
:100C40006DE172E0D9CF2FEF3FEF4FE75FECC701C7
:100C5000B6010E94490A87FDF3CF20E030E0A901E8
:100C6000C701B6010E94490AB12CA12C87FF09C017
:100C70006DE2CE010E94A0045C01F7FAF094F7F84F
:100C8000F0942AE037ED43EA5BE3C701B6010E9426
:100C9000DD092B013C010E944E0A6B017C010E9480
:100CA0007D0A9B01AC01C301B2010E94DC092B014A
:100CB0003C012AE0B701A601CE010E9444057C0157
:100CC000EA0CFB1C6EE2CE010E94A004E80EF91EA5
:100CD00020E030E040E251E4C301B2010E94340B55
:100CE0002B013C010E944E0A4B01B12CA12C2AE0A1
:100CF000B501A401CE010E944405E80EF91EC5010C
:100D0000B4010E947D0A9B01AC01C301B2010E94A3
:100D1000DC0920E030E040E251E40E94340B0E9404
:100D20004E0AAB0170E060E02AE0CE010E9444056B
:100D3000E80EF91E65CF1F920F920FB60F92112485
:100D40002F933F938F939F93AF93BF9380914702CD
:100D500090914802A0914902B0914A02309142021A
:100D600023E0230F2D3758F50196A11DB11D2093C7
:100D700042028093470290934802A0934902B093A5
:100D80004A028091430290914402A0914502B091A1
:100D900046020196A11DB11D809343029093440227
:100DA000A0934502B0934602BF91AF919F918F915E
:100DB0003F912F910F900FBE0F901F90189526E82E
:100DC000230F0296A11DB11DD2CF1F920F920FB615
:100DD0000F9211240BB60F922F933F934F935F9373
:100DE0006F937F938F939F93AF93BF93EF93FF93F3
:100DF0008BE492E00E947E04FF91EF91BF91AF914E
:100E00009F918F917F916F915F914F913F912F9122
:100E10000F900BBE0F900FBE0F901F9018951F9252
:100E20000F920FB60F9211240BB60F922F938F9340
:100E30009F93EF93FF93E0915B02F0915C028081BE
:100E4000E0916102F091620282FD1DC0908180916B
:100E500064028F5F8F7320916502821741F0E091E9
:100E60006402F0E0E55BFD4F958F80936402FF9193
:100E7000EF919F918F912F910F900BBE0F900FBE0E
:100E80000F901F9018958081F2CF1F920F920FB68E
:100E90000F9211240BB60F922F933F934F935F93B2
:100EA0006F937F938F939F93AF93BF93EF93FF9332
:100EB00088EE92E00E947E04FF91EF91BF91AF9186
:100EC0009F918F917F916F915F914F913F912F9162
:100ED0000F900BBE0F900FBE0F901F9018951F9292
:100EE0000F920FB60F9211240BB60F922F938F9380
:100EF0009F93EF93FF93E091F802F091F9028081C4
:100F0000E091FE02F091FF0282FD1DC09081809170
:100F100001038F5F8F7320910203821741F0E091EC
:100F20000103F0E0E851FD4F958F80930103FF919D
:100F3000EF919F918F912F910F900BBE0F900FBE4D
:100F40000F901F9018958081F2CFEBE4F2E01382AE
:100F5000128248EE53E060E070E04483558366837C
:100F6000778384E092E0918380832DEC30E03587B5
:100F700024872CEC30E03787268728EC30E0318B53
:100F8000208B29EC30E0338B228B2AEC30E0358B40
:100F9000248B2EEC30E0378B268B118E128E138E25
:100FA000148EE8EEF2E01382128244835583668346
:100FB00077839183808385EC90E09587848784ECA8
:100FC00090E09787868780EC90E0918B808B81EC16
:100FD00090E0938B828B82EC90E0958B848B86ECF7
:100FE00090E0978B868B118E128E138E148EA5E84F
:100FF000B3E084E015968C9315978BE016968C934E
:101000001697E6E2F2E0E4911796EC931797E0EE7C
:10101000F1E0E4911896EC93189740E85EE360E005
:1010200070E01D964D935D936D937C93509708955A
:10103000789484B5826084BD84B5816084BD85B5B3
:10104000826085BD85B5816085BD80916E008160BF
:1010500080936E0010928100809181008260809365
:101060008100809181008160809381008091800067
:101070008160809380008091B10084608093B10092
:101080008091B00081608093B00080919100826077
:101090008093910080919100816080939100809174
:1010A00090008160809390008091A1008260809385
:1010B000A1008091A10081608093A1008091A00097
:1010C00081608093A0008091210182608093210142
:1010D00080912101816080932101809120018160B4
:1010E0008093200180917A00846080937A008091BF
:1010F0007A00826080937A0080917A008160809388
:101100007A0080917A00806880937A001092C10002
:1011100088EE92E00E9468018BE492E00E946801F0
:1011200062E080918A030E94C7012FB7F8948091F2
:10113000470290914802A0914902B0914A022FBF04
:10114000805D9740A109B10980938E0390938F032E
:10115000A0939003B093910387E3809397030E9439
:101160006602882341F080918B038C3009F462C0C1
:1011700048F48B3001F1C12CD12C90ECE92E9FE783
:10118000F92E43C085518230B0F7C09187036C2F90
:1011900070E0762F662766277F7780918803682B1B
:1011A00090E080E00E947D0A2DEC3CEC4CEC5DE38D
:1011B0000E94340B5BC06091870370E090E080E098
:1011C0000E947D0A6B017C01C0918803C7FF0AC0A1
:1011D000AC019B0160E070E080E89FEB0E94DC09BD
:1011E0006B017C01CF706C2F70E090E080E00E947A
:1011F0007F0A2DEC3CEC4CEC5DE30E94340BA70124
:1012000096010E94DD096B017C010E946602882321
:1012100051F080918B038B3030F08D3080F185510F
:10122000823008F4B7C0812C912C80ECA82E8FE777
:10123000B82E43C0C09187036C2F70E090E080E02F
:101240000E947D0A6B017C01609188036F7070E0E1
:1012500090E080E00E947F0A2DEC3CEC4CEC5DE3DA
:101260000E94340BA70196010E94DD096B017C01ED
:10127000C7FFCBCFF7FAF094F7F8F094C6CF6091A0
:10128000860370E090E080E00E947F0A2DEC3CEC49
:101290004CEC5DE30E94340B4B015C0160918503D3
:1012A00070E090E080E00E947F0A9B01AC01C501E4
:1012B000B4010E94DD094B015C0186E30E94F80144
:1012C0008C0187E30E94F801EC0161E272E088EE94
:1012D00092E00E943A05B701A60188EE92E00E94D2
:1012E000C705B701A6018BE492E00E94C70564E63A
:1012F00070E080E090E00E9434026EE272E088EEDE
:1013000092E00E943A05B501A40188EE92E00E94A5
:10131000C705B501A4018BE492E00E94C70564E60D
:1013200070E080E090E00E94340267E372E088EEB3
:1013300092E00E943A05B80188EE92E00E94900582
:10134000B8018BE492E00E94900564E670E080E0D2
:1013500090E00E9434026DE372E088EE92E00E9419
:101360003A05BE0188EE92E00E949005BE018BE432
:1013700092E00E94900564E670E080E090E00E94B8
:10138000340260E273E080E090E00E9434020E9448
:101390000D05E5CE6091850370918603762767275A
:1013A000762790E080E00E947D0A2DEC3CEC4CEC2E
:1013B0005DE30E94340B7FCF5058BB27AA270E94C1
:1013C000F4090C94F50A0E94E70A38F00E94EE0A2C
:1013D00020F039F49F3F19F426F40C94E40A0EF43B
:1013E000E095E7FB0C94DE0AE92F0E94060B58F308
:1013F000BA17620773078407950720F079F4A6F5FA
:101400000C94280B0EF4E0950B2EBA2FA02D0B0197
:10141000B90190010C01CA01A0011124FF27591B39
:1014200099F0593F50F4503E68F11A16F040A22F3F
:10143000232F342F4427585FF3CF469537952795B0
:10144000A795F0405395C9F77EF41F16BA0B620BAF
:10145000730B840BBAF09150A1F0FF0FBB1F661FF6
:10146000771F881FC2F70EC0BA0F621F731F841F39
:1014700048F4879577956795B795F7959E3F08F05F
:10148000B0CF9395880F08F09927EE0F9795879521
:1014900008950E94BA0A08F481E008950E940E0B94
:1014A00088F09F5798F0B92F9927B751B0F0E1F025
:1014B000660F771F881F991F1AF0BA95C9F714C0D5
:1014C000B13091F00E94280BB1E008950C94280BE4
:1014D000672F782F8827B85F39F0B93FCCF386950E
:1014E00077956795B395D9F73EF49095809570956B
:1014F00061957F4F8F4F9F4F0895E89409C097FBE8
:101500003EF490958095709561957F4F8F4F9F4FDA
:101510009923A9F0F92F96E9BB279395F69587951E
:1015200077956795B795F111F8CFFAF4BB0F11F4E1
:1015300060FF1BC06F5F7F4F8F4F9F4F16C0882388
:1015400011F096E911C0772321F09EE8872F762FBE
:1015500005C0662371F096E8862F70E060E02AF0FF
:101560009A95660F771F881FDAF7880F96958795EB
:1015700097F90895990F0008550FAA0BE0E8FEEFC0
:1015800016161706E807F907C0F012161306E40747
:10159000F50798F0621B730B840B950B39F40A2640
:1015A00061F0232B242B252B21F408950A2609F41E
:1015B000A140A6958FEF811D811D089597F99F6722
:1015C00080E870E060E008959FEF80EC08950024CB
:1015D0000A941616170618060906089500240A9498
:1015E00012161306140605060895092E0394000C1E
:1015F00011F4882352F0BB0F40F4BF2B11F460FFAD
:1016000004C06F5F7F4F8F4F9F4F089557FD9058D5
:10161000440F551F59F05F3F71F04795880F97FBB6
:10162000991F61F09F3F79F0879508951216130670
:101630001406551FF2CF4695F1DF08C0161617069F
:101640001806991FF1CF86957105610508940895D4
:10165000E894BB2766277727CB0197F908950E9466
:10166000BA0A08F48FEF08950E94470B0C94F50A0C
:101670000E94E70A38F00E94EE0A20F0952311F04C
:101680000C94DE0A0C94E40A11240C94290B0E9499
:10169000060B70F3959FC1F3950F50E0551F629FA5
:1016A000F001729FBB27F00DB11D639FAA27F00DBB
:1016B000B11DAA1F649F6627B00DA11D661F829FE2
:1016C0002227B00DA11D621F739FB00DA11D621FC7
:1016D000839FA00D611D221F749F3327A00D611DE4
:1016E000231F849F600D211D822F762F6A2F1124C6
:1016F0009F5750409AF0F1F088234AF0EE0FFF1FF9
:10170000BB1F661F771F881F91505040A9F79E3F4F
:10171000510580F00C94DE0A0C94290B5F3FE4F332
:10172000983ED4F3869577956795B795F795E795A5
:101730009F5FC1F7FE2B880F911D9695879597F9AE
:1017400008950E94BA0A880B990B0895A1E21A2EF7
:10175000AA1BBB1BFD010DC0AA1FBB1FEE1FFF1F55
:10176000A217B307E407F50720F0A21BB30BE40BA5
:10177000F50B661F771F881F991F1A9469F76095EC
:101780007095809590959B01AC01BD01CF010895A6
:10179000EE0FFF1F881F8BBF0790F691E02D199465
:0417A000F894FFCFEB
:1017A40000000000A00400042D04ED045E043C04C9
:1017B40050040D0A006E616E00696E66006F7666F5
:1017C4000054656D706572617475726120004875AE
:1017D4006D6564616420004169726520004C757A0E
:0217E4002000E3
:00000001FF
